:1000000004308A00BF2C0000FF00030E8301A10012
:100010000A08A0008A010408A2007708A300780853
:10002000A4007908A5007A08A60003170D08031399
:10003000A70003170F080313A80003170C080313E6
:10004000A90003170E080313AA00831383120B1EC3
:100050002B288B1850288B1E2F280B195328220869
:1000600084002308F7002408F8002508F900260872
:10007000FA00270803178D000313280803178F00C1
:100080000313290803178C0003132A0803178E0093
:10009000031320088A00210E8300FF0E7F0E090043
:1000A0008A110A126A298A110A12432B8316081030
:1000B00088100811831288100F3083160805F03855
:1000C0008800831208150000081400000808F700D3
:1000D000080E0F39F8007808D00008100000081446
:1000E00000000808F700080E0F39F8007808CF0064
:1000F00008100F308316080588008312500EF70091
:10010000F030F70577084F04F8007808CF00CF1BD0
:100110005C284D1C88104D18881400000811000040
:1001200008104E0ECF000F30CF054F08D000500EF4
:10013000F039F7000F300805770488000000081434
:10014000A12808104E080F39CF004F08D000500EDC
:10015000F039F7000F300805770488000000081414
:10016000B1280810080049308400831300080319DF
:10017000C7280130F800F701F70BBC28F80BBB28A3
:100180004A30F700F70BC228C528800BB9280800B1
:100190004808073A0319D6280B3A0319EB28063A00
:1001A0000319F328023A031909290E290130C9005D
:1001B000CA004A0BDC28DF284030CB00E028CB0106
:1001C00001304902CB074B088038CC00CD014C08E8
:1001D000CE0056201329CD010130CE00562002302A
:1001E000C900B32013290130C9000230CA004A0BEC
:1001F000FA28FD284030CB00FE28CB01013049020F
:10020000CB074B088038CC00CD014C08CE005620DF
:100210001329CD011030CE00562013290130CD0016
:100220004808CE00562008000B08C4008B13831624
:1002300003178C170C140000000083120313C41B57
:100240008B1703170C087F39031968290313C4009F
:1002500003170D080313C50003170F080313C60087
:100260004408C800C820450803178D00031346083A
:1002700003178F0003130B08C7008B138316031794
:100280008C170C140000000083120313C71B8B177C
:1002900003170C0D0E0D7F39031968290313C400D1
:1002A00003170D080313C50003170F080313C60037
:1002B0004408C800C820450803178D0003134608EA
:1002C00003178F008D0A03198F0A031314290317CC
:1002D0000313080064008E018F018E012C14AE13ED
:1002E0002E0883168700831287178316061483123D
:1002F0000618A42964008E018F018E010C30C30002
:100300004308C800C820AD3003178D0001308F00AE
:10031000031314210230C400C830C900B320C40B39
:100320008C29AE112E088316870083128711AE1216
:100330002E0883168700831287122E132E08831629
:1003400087008312071375290C30C3004308C800C7
:10035000C8208B108A110A122F284927D42252292B
:100360005528C3204F008E30F7004508F800440898
:10037000F900FA01F808031DC7297908F800F90106
:100380000830F702F808031DC729F701CF29031029
:10039000F81BCE29F90DF80DF703C729F81308004B
:1003A00048080319402AD0004C080319402AD007F6
:1003B0000318E1297F30D002031C402A0319402A88
:1003C000E5298130D0070318402A5008F700F801CA
:1003D000F901FA014908D400D4174A08D3004B08A0
:1003E000D2001830D000D101521C0E2A4F08FA0753
:1003F000031C002AF90A031D002AF80A0319D11761
:100400004E08F907031C072AF80A0319D1174D08EB
:10041000CA00CA174A08F8070318D117D10DF80CFB
:10042000F90CFA0CD40CD30CD20C0310D00BF3291A
:100430000130F7070318402AF81B252AD40DFA0DBE
:10044000F90DF80DF7030319402AD41F362AFA0ACA
:10045000031D362AF90A031D362AF80A031D362A17
:10046000F80CF90CFA0CF70A0319402A4908D100D4
:100470004D08D106D11F3E2AF817442AF813442A02
:10048000F701F801F901FA010800480803190A2BDD
:10049000D4004C0803190A2BD402031C542A7F30C1
:1004A000D40703180A2B5A2A8130D402031C0A2BC2
:1004B00003190A2B5408F700F801F901FA01D301D6
:1004C0004908D200D2174A08D1004B08D000193091
:1004D000D4004F08D00203187D2A0130D10203183E
:1004E0007D2AD20203187D2AD30203187D2AD30A5B
:1004F000D20AD10A4F08D007AF2A4E08D1020318FA
:10050000982A0130D2020318982AD3020318982A95
:10051000D30AD20A4E08D1074F08D007031CAF2ACE
:10052000D10A031DAF2AD20A031DAF2AD30AAF2A6C
:100530004D088038D2020318AE2A0130D3020318C6
:10054000AE2AD30A4D088038D2074E08D107031CC3
:100550008C2AD20A031D8C2AD30A8C2A7A14D40B33
:10056000B22ABD2A0310D00DD10DD20DD30D031028
:10057000FA0DF90DF80DD50D692A551CC52A031081
:10058000F80CF90CFA0CD50CC82AF70303190A2B3E
:10059000D51BF12A0310D00DD10DD20DD30D4F086C
:1005A000D0020318DD2A0130D1020318DD2AD2025D
:1005B0000318DD2AD302031C002B4E08D1020318B6
:1005C000E82A0130D2020318E82AD302031C002BC8
:1005D0004D088038D2020318F12A0130D302031CDF
:1005E000002BFA0A031D002BF90A031D002BF80A41
:1005F000031D002BF70A03190A2BF80CF90CFA0C4F
:100600004908D4004D08D406D41F082BF8170E2B28
:10061000F8130E2BF701F801F901FA0108008E30EA
:10062000F7004408F7024508F9004608F800F917F2
:10063000F7080319262B0310F908031D222BF808CD
:100640000319262BF90CF80CF70B1B2BC51F2D2BB0
:10065000F809F909F80A0319F90A08004708F80126
:1006600046020318362B4608F700422BF7010830E4
:10067000C800C60DF70D470877020318F700F80DFC
:10068000C80B392B080064000C30C3004308C800B5
:10069000C8201F151F194A2B1E08FA0083161E08B2
:1006A0008312C4001E08C500B321CB01CA0120304B
:1006B000C9008130C8007A08CF007908CE007808D8
:1006C000CD007708CC00D0217A08C7007908C60091
:1006D0007808C5007708C4007A08CB007908CA00FA
:1006E0007808C9007708C800CF01CE014830CD0096
:1006F0008530CC00D0217A08C7007908C600780878
:10070000C5007708C4007A08CB007908CA007808C9
:10071000C9007708C800CF01C030CE007F30CD00BF
:100720008830CC0045227A08C7007908C6007808CE
:10073000C5007708C4000F237808AD0043300317C5
:100740008D0004308F00031007300313C4000B0822
:10075000C5008B13831603178C170C1400000000C0
:1007600083120313C51B8B170318DE2B03170C080A
:100770007F390313C50003170D080313C6000317C1
:100780000F080313C7004508C800C8204608031710
:100790008D000313470803178F0003130B08C800CD
:1007A0008B13831603178C170C14000000008312A0
:1007B0000313C81B8B17C40BDE2BFD2B03170C0D6B
:1007C0000E0D7F390313C50003170D080313C60070
:1007D00003170F080313C7004508C800C8204608C0
:1007E00003178D000313470803178F008D0A0319A1
:1007F0008F0A03100313C40BA72B2D08C4001B3052
:10080000C5004408C6006430C7002E237708C40022
:1008100078083030031D132CC51C1A2CC5191A2C4E
:10082000451A2030162CC51145124514F8077808D2
:10083000C800C8204408C6000A30C7002E23770825
:10084000C40078083030031D2B2CC5192F2C451CF3
:100850002F2C451A2030F8077808C800C8203030FF
:10086000C4074408C800C8202730C800C820493041
:1008700003178D0004308F000313142181010B1125
:100880008A110A122F28D4224D28A01EA012F51377
:1008900000000A10F232613279005029CF21C529B7
:1008A000D327A0295029C12C00002830B2000C30D9
:1008B000B3000130B4000630B500081088100811EC
:1008C0000F3083160805880008108810081183125D
:1008D000AB018B1BAB178B130F30C900B320AB1BC5
:1008E0008B170130B1003108033C031C8F2C0330FF
:1008F000D000500EF039F7000F300805770488005B
:1009000000000814832C0810AB018B1BAB178B1352
:100910000530C900B320AB1B8B17B10A732C023012
:10092000D000500EF039F7000F300805770488002A
:10093000000008149B2C0810AB018B1BAB178B130A
:100940000530C900B320AB1B8B17B1013108033C44
:10095000031CBC2C32303107840083130008B6001E
:10096000AB018B1BAB178B13CD013608CE00562085
:10097000AB1B8B17B10AA62C8A110A12EC2C0308A8
:100980001F398300AC142C15FF30AE00B001AF014D
:1009900083161F149F141F159F1107309C0083138B
:1009A0008113003087008312AE00831686108312F5
:1009B0008610AE112E088316870083128711AE129F
:1009C0002E0883168700831287122E132E08831693
:1009D000870083120713552C4D3003178D00043008
:1009E0008F000313AB018B1BAB178B131421AB1BB5
:1009F0008B170430B100AB018B1BAB178B13FA3094
:100A0000C900B320AB1B8B17B10BFB2C83161F1037
:100A10009F141F159F151F1383121F179F178316EF
:100A20009F1783121F1483160108C03905388100EF
:100A300083128101E0308B040B16831601130F30F3
:100A4000F700831281018130840083130008F0399C
:100A50000738800064000008F739F719F039770487
:100A600080006400831686148312AC118618AC15BE
:100A7000AB018B1BAB178B13FA30C900B320AB1B38
:100A80008B17AC19732F2C18732F8316061583122E
:100A90002C1106192C15AB018B1BAB178B13FA30DD
:100AA000C900B320AB1B8B176400AC195A2F2C194B
:100AB0005A2F2C185A2F6400831686158312AC10F7
:100AC0008619AC14AB018B1BAB178B13FA30C90022
:100AD000B320AB1B8B17AC19412F2C19412FAC182D
:100AE000412F2C18412F64000030F8001F08C7392F
:100AF00078049F000330F700F70B7C2D1F151F199A
:100B00007F2D1E08FA0083161E088312AB018B1B73
:100B1000AB178B13C4001E08C500B321AB1B8B178A
:100B2000AB018B1BAB178B13CB01CA012030C90063
:100B30008130C8007A08CF007908CE007808CD004F
:100B40007708CC00D021AB1B8B177A08B40079084A
:100B5000B3007808B2007708B100AB018B1BAB176C
:100B60008B137A08CB007908CA007808C900770887
:100B7000C800CF01CE014830CD008530CC00D02157
:100B8000AB1B8B177A08B4007908B3007808B20061
:100B90007708B100AB018B1BAB178B137A08CB0026
:100BA0007908CA007808C9007708C800CF01C030AA
:100BB000CE007F30CD008830CC004522AB1B8B1798
:100BC000AB018B1BAB178B137A08C7007908C600E3
:100BD0007808C5007708C4000F23AB1B8B17780873
:100BE000AD00AE122E0883168700831287160230DE
:100BF000B100AB018B1BAB178B13FA30C900B320CC
:100C0000AB1B8B17B10BF92DAE112E088316870085
:100C1000831287150230B100AB018B1BAB178B130E
:100C2000FA30C900B320AB1B8B17B10B0C2E2D086B
:100C3000633C031CB82E64002C18AF2E0030F80063
:100C40001F08C73978049F000330F700F70B262EE2
:100C50001F151F19292E1E08FA0083161E0883125D
:100C6000AB018B1BAB178B13C4001E08C500B3214F
:100C7000AB1B8B17AB018B1BAB178B13CB01CA01C3
:100C80002030C9008130C8007A08CF007908CE0032
:100C90007808CD007708CC00D021AB1B8B177A08E1
:100CA000B4007908B3007808B2007708B100AB014E
:100CB0008B1BAB178B137A08CB007908CA00780816
:100CC000C9007708C800CF01CE014830CD0085307B
:100CD000CC00D021AB1B8B177A08B4007908B30085
:100CE0007808B2007708B100AB018B1BAB178B13F0
:100CF0007A08CB007908CA007808C9007708C800CC
:100D0000CF01C030CE007F30CD008830CC004522EE
:100D1000AB1B8B17AB018B1BAB178B137A08C70070
:100D20007908C6007808C5007708C4000F23AB1BFC
:100D30008B177808AD000230B100AB018B1BAB17ED
:100D40008B13C830C900B320AB1B8B17B10B9D2E82
:100D50002E122E088316870083120716B72EAE13A5
:100D60002E0883168700831287136530AD00172E77
:100D70002E122E088316870083120712AB018B1BDD
:100D8000AB178B13C830C900B320AB1B8B1783166E
:100D900086148312AC118618AC15AB018B1BAB17F4
:100DA0008B136430C900B320AB1B8B178316061559
:100DB00083122C1106192C15AB018B1BAB178B134F
:100DC0006430C900B320AB1B8B17640083168615F3
:100DD0008312AC108619AC142C18282FAC19282FAC
:100DE0002C19282FAC18282F64002E132E088316D8
:100DF0008700831207170230B100AB018B1BAB17C2
:100E00008B13FA30C900B320AB1B8B17B10BFD2E2F
:100E10000830B100AB018B1BAB178B13FA30C90044
:100E2000B320AB1B8B17B10B0A2FAE112E08831604
:100E3000870083128711AE122E0883168700831253
:100E400087122E132E088316870083120713402F54
:100E5000AE112E088316870083128711AE122E085A
:100E600083168700831287122E132E08831687009D
:100E700083120713AE132E0883168700831287137D
:100E8000592FAE112E088316870083128711AE12D8
:100E90002E0883168700831287122E132E088316BE
:100EA000870083120713AE132E0883168700831260
:100EB0008713722FAE112E088316870083128711B5
:100EC000AE122E0883168700831287122E132E0867
:100ED0008316870083120713AE132E08831687002C
:100EE000831287138C2FAE112E088316870083126E
:100EF0008711AE122E0883168700831287122E13D5
:100F00002E0883168700831207132C10AE132E08A9
:100F100083168700831287130430B100AB018B1B4B
:100F2000AB178B13FA30C900B320AB1B8B17B10B77
:060F30008E2F312D63003D
:02400E00753FFC
:00000001FF
;PIC16F877A
;CRC=B086  CREATED="22-nov-18 13:57"
