:1000000004308A00602C0000FF00030E8301A10071
:100010000A08A0008A010408A2007708A300780853
:10002000A4007908A5007A08A60003170D08031399
:10003000A70003170F080313A80003170C080313E6
:10004000A90003170E080313AA00831383120B1EC3
:100050002B288B1850288B1E2F280B195328220869
:1000600084002308F7002408F8002508F900260872
:10007000FA00270803178D000313280803178F00C1
:100080000313290803178C0003132A0803178E0093
:10009000031320088A00210E8300FF0E7F0E090043
:1000A0008A110A1255298A110A12092A0F30831659
:1000B0000805F038880083120815000008140000B5
:1000C0000808F700080E0F39F8007808CE0008106D
:1000D0000000081400000808F700080E0F39F800A7
:1000E0007808CD0008100F308316080588008312A9
:1000F0004E0EF700F030F70577084D04F8000800C1
:100100004E0EF039F7000F30080577048800000024
:1001100008148A280810080083160810881008118F
:100120008312881056207808CD00CD1B92284B1CD6
:1001300088104B18881400000811000008104C0E9D
:10014000CD000F30CD054D08CE0080204C080F3972
:10015000CD00CE0080200800480BAF28B2284030E8
:10016000C900B328C90101304702C90749088038CE
:10017000CA00CB014A08CC008C200800473084001C
:10018000831300080319D2280130F800F701F70B98
:10019000C728F80BC6284A30F700F70BCD28D0281F
:1001A000800BC42808004608073A0319E1280B3AD7
:1001B0000319E628063A0319EE28023A0319F4282F
:1001C000F9280130C700C800AC20FE28CB0101305F
:1001D000CC008C200230C700BE20FE280130C700B2
:1001E0000230C800AC20FE28CB011030CC008C209F
:1001F000FE280130CB004608CC008C2008000B08FC
:10020000C2008B13831603178C170C140000000018
:1002100083120313C21B8B1703170C087F390319B2
:1002200053290313C20003170D080313C300031758
:100230000F080313C4004208C600D3204308031765
:100240008D000313440803178F0003130B08C50028
:100250008B13831603178C170C14000000008312F5
:100260000313C51B8B1703170C0D0E0D7F390319D4
:1002700053290313C20003170D080313C300031708
:100280000F080313C4004208C600D3204308031715
:100290008D000313440803178F008D0A03198F0A7A
:1002A0000313FF280317031308002E1483160614E4
:1002B000831206186F290C30C0004008C600D320F6
:1002C000793003178D0001308F000313FF200230B7
:1002D000C100C830C700BE20C10B692956290C30A7
:1002E000C0004008C600D320AD018B108A110A124D
:1002F0002F284927D42252295528C3204F004608C9
:100300000319EF29CE004A080319EF29CE07031875
:1003100090297F30CE02031CEF290319EF2994297D
:100320008130CE070318EF294E08F700F801F901D4
:10033000FA014708D200D2174808D1004908D00076
:100340001830CE00CF01501CBD294D08FA07031C00
:10035000AF29F90A031DAF29F80A0319CF174C0872
:10036000F907031CB629F80A0319CF174B08C80070
:10037000C8174808F8070318CF17CF0DF80CF90C69
:10038000FA0CD20CD10CD00C0310CE0BA2290130E8
:10039000F7070318EF29F81BD429D20DFA0DF90D30
:1003A000F80DF7030319EF29D21FE529FA0A031DF7
:1003B000E529F90A031DE529F80A031DE529F80CCA
:1003C000F90CFA0CF70A0319EF294708CF004B087C
:1003D000CF06CF1FED29F817F329F813F329F701FA
:1003E000F801F901FA0108004508F8014402031870
:1003F000FC294408F700082AF7010830C600C40D9C
:10040000F70D450877020318F700F80DC60BFF2912
:1004100008000130AD07833081002E184A2C2D08CA
:100420000A3C031D1E2CAC08031D1E2C0C30C10001
:100430004108C600D3200030F8001F08C7397804EF
:100440009F000330F700F70B232A1F151F19262AD8
:100450001E08FA0083161E088312C2007A08C30021
:100460008E30F7004308F8004208F900FA01F80856
:10047000031D442A7908F800F9010830F702F8084A
:10048000031D442AF7014C2A0310F81B4B2AF90DCF
:10049000F80DF703442AF813C901C8012030C7003A
:1004A0008130C6007A08CD007908CC007808CB00EE
:1004B0007708CA007F217A08C5007908C400780847
:1004C000C3007708C2004508C9004408C8004308B3
:1004D000C7004208C600CD01CC014830CB008530B2
:1004E000CA007F217A08C5007908C4007808C300D3
:1004F0007708C2004508C9004408C8004308C7007F
:100500004208C600CD01C030CC007F30CB0088301F
:10051000CA00460803194E2BD2004A0803194E2B75
:10052000D202031C982A7F30D20703184E2B9E2A32
:100530008130D202031C4E2B03194E2B5208F700B8
:10054000F801F901FA01D1014708D000D017480895
:10055000CF004908CE001930D2004D08CE02031852
:10056000C12A0130CF020318C12AD0020318C12AC0
:10057000D1020318C12AD10AD00ACF0A4D08CE07EA
:10058000F32A4C08CF020318DC2A0130D0020318EA
:10059000DC2AD1020318DC2AD10AD00A4C08CF0782
:1005A0004D08CE07031CF32ACF0A031DF32AD00AF5
:1005B000031DF32AD10AF32A4B088038D00203180E
:1005C000F22A0130D1020318F22AD10A4B088038EE
:1005D000D0074C08CF07031CD02AD00A031DD02A0D
:1005E000D10AD02A7A14D20BF62A012B0310CE0D91
:1005F000CF0DD00DD10D0310FA0DF90DF80DD30D5F
:10060000AD2A531C092B0310F80CF90CFA0CD30C6F
:100610000C2BF70303194E2BD31B352B0310CE0DD8
:10062000CF0DD00DD10D4D08CE020318212B013076
:10063000CF020318212BD0020318212BD102031C57
:10064000442B4C08CF0203182C2B0130D002031886
:100650002C2BD102031C442B4B088038D0020318EA
:10066000352B0130D102031C442BFA0A031D442B05
:10067000F90A031D442BF80A031D442BF70A03193A
:100680004E2BF80CF90CFA0C4708D2004B08D20696
:10069000D21F4C2BF817522BF813522BF701F801ED
:1006A000F901FA017A08C5007908C4007808C30086
:1006B0007708C2008E30F7004208F7024308F900BD
:1006C0004408F800F917F7080319712B0310F9080B
:1006D000031D6D2BF8080319712BF90CF80CF70B9F
:1006E000662BC31F782BF809F909F80A0319F90AD0
:1006F0007808C0004E3003178D0004308F000310BF
:1007000007300313C2000B08C3008B1383160317B3
:100710008C170C140000000083120313C31B8B17EB
:100720000318BA2B03170C087F390313C3000317F0
:100730000D080313C40003170F080313C500430873
:10074000C600D320440803178D0003134508031780
:100750008F0003130B08C6008B13831603178C1727
:100760000C140000000083120313C61B8B17C20B6E
:10077000BA2BD92B03170C0D0E0D7F390313C300B1
:1007800003170D080313C40003170F080313C50054
:100790004308C600D320440803178D0003134508FF
:1007A00003178F008D0A03198F0A03100313C20B5E
:1007B000832B4008C2001B30C3004208C4006430D1
:1007C000C500F4217708C20078083030031DEF2BF4
:1007D000C31CF62BC319F62B431A2030F22BC3117E
:1007E00043124314F8077808C600D3204208C40017
:1007F0000A30C500F4217708C20078083030031DA4
:10080000072CC3190B2C431C0B2C431A2030F80760
:100810007808C600D3203030C2074208C600D32073
:100820002730C600D3200230C200FA30C700BE20F5
:10083000C20B152C0130AC07AD014A2C2D080A3C27
:10084000031D4A2C2C0B4A2C0C30C1004108C60059
:10085000D320AE193A2C543003178D0004308F008A
:100860000313FF200230C200FA30C700BE20C20BC3
:10087000342C482C5A3003178D0004308F0003139A
:10088000FF200230C200FA30C700BE20C20B432C4A
:10089000AC01AD010B118A110A122F28D4224D2868
:1008A000A01EA012F513000050294F22552A4F1008
:1008B000CF250001D3224D1050294F22552A4F0039
:1008C00003081F398300AC01AE14B001AF01FF3043
:1008D000B10083161F149F141F159F1107309C0031
:1008E00083138113003087008312B10083168610B2
:1008F000831286102830B6000C30B7000130B800E3
:100900000630B9000810881008110F30831608054A
:1009100088000810881008118312AB018B1BAB17DD
:100920008B130F30C700BE20AB1B8B170130B500F7
:100930003508033C031CB02CAB018B1BAB178B138E
:100940000330CE008020AB1B8B17AB018B1BAB178A
:100950008B130530C700BE20AB1B8B17B50A982C34
:10096000AB018B1BAB178B130230CE008020AB1B6F
:100970008B17AB018B1BAB178B130530C700BE2049
:10098000AB1B8B17B5013508033C031CD92C363043
:100990003507840083130008BA00AB018B1BAB172B
:1009A0008B13CB013A08CC008C20AB1B8B17B50AFC
:1009B000C32C83161F109F141F159F151F1383121E
:1009C0001F179F1783169F1783121F148316010882
:1009D000C03905388100833083128100E0308B04F8
:1009E0000B168316011386148312AE118618AE15EA
:1009F000AB018B1BAB178B13FA30C700BE20AB1BB0
:100A00008B17AE190A2DB113310883168700831294
:100A10008717102DB11331088316870083128713AF
:080A20002E108316F32C630075
:02400E00713F00
:00000001FF
;PIC16F877A
;CRC=BD89  CREATED="14-nov-18 17:40"
