:1000000005308A008E2D0000FF00030E8301A10041
:100010000A08A0008A010408A2007708A300780853
:10002000A4007908A5007A08A60003170D08031399
:10003000A70003170F080313A80003170C080313E6
:10004000A90003170E080313AA00831383120B1EC3
:100050002B288B1850288B1E2F280B195328220869
:1000600084002308F7002408F8002508F900260872
:10007000FA00270803178D000313280803178F00C1
:100080000313290803178C0003132A0803178E0093
:10009000031320088A00210E8300FF0E7F0E090043
:1000A0008A110A126A298A110A12B52B83160810BE
:1000B00088100811831288100F3083160805F03855
:1000C0008800831208150000081400000808F700D3
:1000D000080E0F39F8007808D60008100000081440
:1000E00000000808F700080E0F39F8007808D5005E
:1000F00008100F308316080588008312560EF7008B
:10010000F030F70577085504F8007808D500D51BBE
:100110005C28531C88105318881400000811000034
:100120000810540ED5000F30D5055508D600560ED0
:10013000F039F7000F300805770488000000081434
:10014000A128081054080F39D5005508D600560EBE
:10015000F039F7000F300805770488000000081414
:10016000B128081008004F308400831300080319D9
:10017000C7280130F800F701F70BBC28F80BBB28A3
:100180004A30F700F70BC228C528800BB9280800B1
:100190004E08073A0319D6280B3A0319EB28063AFA
:1001A0000319F328023A031909290E290130CF0057
:1001B000D000500BDC28DF284030D100E028D101EE
:1001C00001304F02D10751088038D200D3015208C4
:1001D000D40056201329D3010130D4005620023018
:1001E000CF00B32013290130CF000230D000500BD4
:1001F000FA28FD284030D100FE28D10101304F02FD
:10020000D10751088038D200D3015208D4005620BB
:100210001329D3011030D400562013290130D30004
:100220004E08D400562008000B08CA008B13831612
:1002300003178C170C140000000083120313CA1B51
:100240008B1703170C087F39031968290313CA0099
:1002500003170D080313CB0003170F080313CC007B
:100260004A08CE00C8204B0803178D0003134C0822
:1002700003178F0003130B08CD008B13831603178E
:100280008C170C140000000083120313CD1B8B1776
:1002900003170C0D0E0D7F39031968290313CA00CB
:1002A00003170D080313CB0003170F080313CC002B
:1002B0004A08CE00C8204B0803178D0003134C08D2
:1002C00003178F008D0A03198F0A031314290317CC
:1002D000031308002F14B01330088316870083120D
:1002E000871783160614831206188A290C30C80053
:1002F0004808CE00C820933003178D0001308F00CE
:10030000031314210230C900C830CF00B320C90B39
:10031000842971290C30C8004808CE00C8208B10F1
:100320008A110A122F284927D42252295528C3207E
:100330004F008E30F7004B08F8004A08F900FA0128
:10034000F808031DAD297908F800F9010830F70213
:10035000F808031DAD29F701B5290310F81BB429CE
:10036000F90DF80DF703AD29F81308004E0803192D
:10037000262AD60052080319262AD6070318C729A9
:100380007F30D602031C262A0319262ACB29813066
:10039000D6070318262A5608F700F801F901FA01D2
:1003A0004F08DA00DA175008D9005108D800183081
:1003B000D600D701581CF4295508FA07031CE62972
:1003C000F90A031DE629F80A0319D7175408F90793
:1003D000031CED29F80A0319D7175308D000D017CA
:1003E0005008F8070318D717D70DF80CF90CFA0CBA
:1003F000DA0CD90CD80C0310D60BD9290130F70729
:100400000318262AF81B0B2ADA0DFA0DF90DF80D40
:10041000F7030319262ADA1F1C2AFA0A031D1C2ACD
:10042000F90A031D1C2AF80A031D1C2AF80CF90CF2
:10043000FA0CF70A0319262A4F08D7005308D706E3
:10044000D71F242AF8172A2AF8132A2AF701F801B5
:10045000F901FA0108004E080319F02ADA005208DF
:100460000319F02ADA02031C3A2A7F30DA0703184C
:10047000F02A402A8130DA02031CF02A0319F02AFC
:100480005A08F700F801F901FA01D9014F08D8001C
:10049000D8175008D7005108D6001930DA0055088F
:1004A000D6020318632A0130D7020318632AD80240
:1004B0000318632AD9020318632AD90AD80AD70A6B
:1004C0005508D607952A5408D70203187E2A01300A
:1004D000D80203187E2AD90203187E2AD90AD80A1C
:1004E0005408D7075508D607031C952AD70A031DB9
:1004F000952AD80A031D952AD90A952A53088038C7
:10050000D8020318942A0130D9020318942AD90A70
:1005100053088038D8075408D707031C722AD80A12
:10052000031D722AD90A722A7A14DA0B982AA32A8E
:100530000310D60DD70DD80DD90D0310FA0DF90DF6
:10054000F80DDB0D4F2A5B1CAB2A0310F80CF90CDD
:10055000FA0CDB0CAE2AF7030319F02ADB1BD72AAF
:100560000310D60DD70DD80DD90D5508D602031896
:10057000C32A0130D7020318C32AD8020318C32A9A
:10058000D902031CE62A5408D7020318CE2A0130E8
:10059000D8020318CE2AD902031CE62A5308803851
:1005A000D8020318D72A0130D902031CE62AFA0A16
:1005B000031DE62AF90A031DE62AF80A031DE62AA6
:1005C000F70A0319F02AF80CF90CFA0C4F08DA00B4
:1005D0005308DA06DA1FEE2AF817F42AF813F42A79
:1005E000F701F801F901FA0108008E30F7004A0816
:1005F000F7024B08F9004C08F800F917F70803193F
:100600000C2B0310F908031D082BF80803190C2BF9
:10061000F90CF80CF70B012BCB1F132BF809F90978
:10062000F80A0319F90A08000B08CB008B1383168C
:1006300003178C170C140000000083120313CB1B4C
:100640008B1703184B2B03170C087F390313CB00B0
:1006500003170D080313CC0003170F080313CD0075
:100660004B08CE00C8204C0803178D0003134D081B
:1006700003178F0003130B08CE008B138316031789
:100680008C170C140000000083120313CE1B8B1771
:10069000CA0B4B2B6A2B03170C0D0E0D7F3903135E
:1006A000CB0003170D080313CC0003170F08031327
:1006B000CD004B08CE00C8204C0803178D00031353
:1006C0004D0803178F008D0A03198F0A03100313B7
:1006D000CA0B142B08004D08F8014C020318732BA9
:1006E0004C08F7007F2BF7010830CE00CC0DF70D3A
:1006F0004D0877020318F700F80DCE0B762B080093
:1007000078084A08CC006430CD006B237708CA0013
:1007100078083030031D932BCB1C9A2BCB199A2BC6
:100720004B1A2030962BCB114B124B14F80778083C
:10073000CE00C8204A08CC000A30CD006B237708D1
:10074000CA0078083030031DAB2BCB19AF2B4B1CE4
:10075000AF2B4B1A2030F8077808CE00C820303075
:10076000CA074A08CE00C8200800AE0A810101303D
:100770002E02FC3E0318D72C043EDB2C0C30C900A3
:100780004908CE00C8200030F8001F08C739780497
:100790009F000330F700F70BCB2B1F151F19CE2B33
:1007A0001E08FA0083161E088312CA001E08CB001A
:1007B0009921D101D0012030CF008130CE007A08BC
:1007C000D5007908D4007808D3007708D200B62184
:1007D0007A08CD007908CC007808CB007708CA00E9
:1007E0007A08D1007908D0007808CF007708CE00C9
:1007F000D501D4014830D3008530D200B6217A0823
:10080000CD007908CC007808CB007708CA007A08B8
:10081000D1007908D0007808CF007708CE00D50144
:10082000C030D4007F30D3008830D2002B227A0829
:10083000CD007908CC007808CB007708CA00F522F3
:100840007808C8004808633C031C472CE3300317B2
:100850008D0004308F00031007300313CA001423E7
:100860004808CA001B30CB008023E73003178D00F7
:1008700004308F00031407300313CA00142302301E
:10088000CA00FA30CF00B320CA0B412C672CEC30E1
:1008900003178D0004308F00031007300313CA00C4
:1008A00014234808CA001B30CB008023F030031704
:1008B0008D0004308F00031404300313CA00142386
:1008C0000230CA00FA30CF00B320CA0B622CD72CFA
:1008D0000C30C9004908CE00C820AF197E2CF33077
:1008E00003178D0004308F00031314210230CA0057
:1008F000FA30CF00B320CA0B782C8C2CF9300317B8
:100900008D0004308F00031314210230CA00FA3026
:10091000CF00B320CA0B872CD72C0C30C900490854
:10092000CE00C8202F19A32CFF3003178D000430F0
:100930008F00031314210230CA00FA30CF00B32015
:10094000CA0B9D2CB12C053003178D0005308F008C
:10095000031314210230CA00FA30CF00B320CA0BAF
:10096000AC2CD72C0C30C9004908CE00C820AF18D9
:10097000C82C0B3003178D0005308F000313142192
:100980000230CA00FA30CF00B320CA0BC22CD62CDA
:10099000133003178D0005308F000313142102302C
:1009A000CA00FA30CF00B320CA0BD12CAE010B1114
:1009B0008A110A122F280A108A100A158207BE2BE4
:1009C000682C8D2CB22CD4224D28A01EA012F51319
:1009D0002021C124D8200000D4224D28A01EA0121E
:1009E000F513A0274B0050294F22552A4F10CF2531
:1009F0000001D3224D1050294F22552A4F00C22703
:100A00004D21411031104F270001C2274D214110C7
:100A100031104F234600D6224E2A492641224F2923
:100A2000A018A0274E00D6224E2A492641224F293F
:100A3000A018A027462300015029CF21C529D3277C
:100A4000A0295029C12C00002830B7000C30B80074
:100A50000130B9000630BA000810881008110F30B4
:100A60008316080588000810881008118312AB014E
:100A70008B1BAB178B130F30CF00B320AB1B8B1727
:100A80000130B6003608033C031C5E2D0330D6004F
:100A9000560EF039F7000F30080577048800000083
:100AA0000814522D0810AB018B1BAB178B130530AC
:100AB000CF00B320AB1B8B17B60A422D0230D600F5
:100AC000560EF039F7000F30080577048800000053
:100AD00008146A2D0810AB018B1BAB178B13053064
:100AE000CF00B320AB1B8B17B6013608033C031CA9
:100AF0008B2D37303607840083130008BB00AB0111
:100B00008B1BAB178B13D3013B08D4005620AB1BB8
:100B10008B17B60A752D8A110A12BD2D03081F39CD
:100B20008300AC01AE01AF142F15FF30B000B2014D
:100B3000B10183161F149F141F159F1107309C00CD
:100B400083138113003087008312B0008316861050
:100B500083128610B0113008831687008312871124
:100B6000B0123008831687008312871230133008C2
:100B70008316870083120713242D1C3003178D0062
:100B800005308F000313AB018B1BAB178B131421A4
:100B9000AB1B8B170830B600AB018B1BAB178B134D
:100BA000FA30CF00B320AB1B8B17B60BCC2D8316BE
:100BB0001F109F141F159F151F1383121F179F17B8
:100BC00083169F1783121F1483160108C039053836
:100BD000810083128101E0308B040B168316011310
:100BE00086148312AF118618AF15AB018B1BAB17A0
:100BF0008B13FA30CF00B320AB1B8B17AF19D72F55
:100C00002F18D72F8316061583122F1106192F15AB
:100C1000AB018B1BAB178B13FA30CF00B320AB1B90
:100C20008B17AF19B72F2F19B72F2F18B72F831680
:100C300086158312AF108619AF14AF19A42F2F1980
:100C4000A42FAF18A42F2F18A42F0030F8001F08CE
:100C5000C73978049F000330F700F70B2D2E1F15BE
:100C60001F19302E1E08FA0083161E088312AB01CE
:100C70008B1BAB178B13CA001E08CB009921AB1B33
:100C80008B17AB018B1BAB178B13D101D00120301D
:100C9000CF008130CE007A08D5007908D4007808DA
:100CA000D3007708D200B621AB1B8B177A08B900A6
:100CB0007908B8007808B7007708B600AB018B1B3D
:100CC000AB178B137A08D1007908D0007808CF00D1
:100CD0007708CE00D501D4014830D3008530D2004A
:100CE000B621AB1B8B177A08B9007908B8007808D1
:100CF000B7007708B600AB018B1BAB178B137A08D4
:100D0000D1007908D0007808CF007708CE00D5014F
:100D1000C030D4007F30D3008830D2002B22AB1BF0
:100D20008B17AB018B1BAB178B137A08CD0079089F
:100D3000CC007808CB007708CA00F522AB1B8B17D4
:100D40007808B400B0123008831687008312871623
:100D50000230B600AB018B1BAB178B13FA30CF0000
:100D6000B320AB1B8B17B60BAA2EB011300883161D
:100D70008700831287150230B600AB018B1BAB17BF
:100D80008B13FA30CF00B320AB1B8B17B60BBD2EE5
:100D90003408633C031C622F2F185F2F0030F800CB
:100DA0001F08C73978049F000330F700F70BD62ED1
:100DB0001F151F19D92E1E08FA0083161E0883124C
:100DC000AB018B1BAB178B13CA001E08CB009921FC
:100DD000AB1B8B17AB018B1BAB178B13D101D00156
:100DE0002030CF008130CE007A08D5007908D400B9
:100DF0007808D3007708D200B621AB1B8B177A088E
:100E0000B9007908B8007808B7007708B600AB01D8
:100E10008B1BAB178B137A08D1007908D0007808A8
:100E2000CF007708CE00D501D4014830D3008530FB
:100E3000D200B621AB1B8B177A08B9007908B8002D
:100E40007808B7007708B600AB018B1BAB178B1384
:100E50007A08D1007908D0007808CF007708CE0052
:100E6000D501C030D4007F30D3008830D2002B228F
:100E7000AB1B8B17AB018B1BAB178B137A08CD0009
:100E80007908CC007808CB007708CA00F522AB1BA4
:100E90008B177808B4000230B600AB018B1BAB1780
:100EA0008B13C830CF00B320AB1B8B17B60B4D2F65
:100EB000301230088316870083120716612F6530C1
:100EC000B400C82E30123008831687008312071230
:100ED000AB018B1BAB178B13C830CF00B320AB1B00
:100EE0008B173013300883168700831207170230E0
:100EF000B600AB018B1BAB178B13FA30CF00B320BE
:100F0000AB1B8B17B60B792F1430B600AB018B1BC4
:100F1000AB178B13FA30CF00B320AB1B8B17B60B7C
:100F2000862FB01130088316870083128711B01204
:100F30003008831687008312871230133008831617
:100F4000870083120713B62FB0113008831687006D
:100F500083128711B012300883168700831287121C
:100F6000301330088316870083120713D62FB01171
:100F700030088316870083128711B0123008831659
:100F8000870083128712301330088316870083127C
:100F900007130230B600AB018B1BAB178B13FA3073
:100FA000CF00B320AB1B8B17B60BCB2FFD2FB0118F
:100FB00030088316870083128711B0123008831619
:100FC000870083128712301330088316870083123C
:100FD0000713B013300883168700831287132F106E
:100FE0000430B600AB018B1BAB178B13FA30CF006C
:100FF000B320AB1B8B17B60BF22F8316F02D6300BB
:02400E00713F00
:00000001FF
;PIC16F877A
;CRC=D2B8  CREATED="17-nov-18 17:00"
